{
  "_format": "hh-sol-artifact-1",
  "contractName": "Faucet",
  "sourceName": "contracts/faucet/Faucet.sol",
  "abi": [
    {
      "inputs": [
        {
          "internalType": "address",
          "name": "_token",
          "type": "address"
        }
      ],
      "stateMutability": "nonpayable",
      "type": "constructor"
    },
    {
      "anonymous": false,
      "inputs": [
        {
          "indexed": true,
          "internalType": "address",
          "name": "user",
          "type": "address"
        },
        {
          "indexed": false,
          "internalType": "uint256",
          "name": "amount",
          "type": "uint256"
        }
      ],
      "name": "Claim",
      "type": "event"
    },
    {
      "anonymous": false,
      "inputs": [
        {
          "indexed": true,
          "internalType": "address",
          "name": "previousOwner",
          "type": "address"
        },
        {
          "indexed": true,
          "internalType": "address",
          "name": "newOwner",
          "type": "address"
        }
      ],
      "name": "OwnershipTransferred",
      "type": "event"
    },
    {
      "stateMutability": "payable",
      "type": "fallback"
    },
    {
      "inputs": [],
      "name": "amountAllowed",
      "outputs": [
        {
          "internalType": "uint256",
          "name": "",
          "type": "uint256"
        }
      ],
      "stateMutability": "view",
      "type": "function"
    },
    {
      "inputs": [
        {
          "internalType": "uint256",
          "name": "amount",
          "type": "uint256"
        }
      ],
      "name": "donateTofaucet",
      "outputs": [],
      "stateMutability": "nonpayable",
      "type": "function"
    },
    {
      "inputs": [],
      "name": "faucetBalance",
      "outputs": [
        {
          "internalType": "uint256",
          "name": "",
          "type": "uint256"
        }
      ],
      "stateMutability": "view",
      "type": "function"
    },
    {
      "inputs": [
        {
          "internalType": "address",
          "name": "",
          "type": "address"
        }
      ],
      "name": "lockTime",
      "outputs": [
        {
          "internalType": "uint256",
          "name": "",
          "type": "uint256"
        }
      ],
      "stateMutability": "view",
      "type": "function"
    },
    {
      "inputs": [],
      "name": "owner",
      "outputs": [
        {
          "internalType": "address",
          "name": "",
          "type": "address"
        }
      ],
      "stateMutability": "view",
      "type": "function"
    },
    {
      "inputs": [],
      "name": "renounceOwnership",
      "outputs": [],
      "stateMutability": "nonpayable",
      "type": "function"
    },
    {
      "inputs": [],
      "name": "requestTokens",
      "outputs": [],
      "stateMutability": "nonpayable",
      "type": "function"
    },
    {
      "inputs": [
        {
          "internalType": "uint256",
          "name": "newAmountAllowed",
          "type": "uint256"
        }
      ],
      "name": "setAmountallowed",
      "outputs": [],
      "stateMutability": "nonpayable",
      "type": "function"
    },
    {
      "inputs": [],
      "name": "token",
      "outputs": [
        {
          "internalType": "contract IERC20",
          "name": "",
          "type": "address"
        }
      ],
      "stateMutability": "view",
      "type": "function"
    },
    {
      "inputs": [
        {
          "internalType": "address",
          "name": "newOwner",
          "type": "address"
        }
      ],
      "name": "transferOwnership",
      "outputs": [],
      "stateMutability": "nonpayable",
      "type": "function"
    },
    {
      "stateMutability": "payable",
      "type": "receive"
    }
  ],
  "bytecode": "0x60a0604052678ac7230489e8000060015534801561001c57600080fd5b50604051610ca1380380610ca183398101604081905261003b916100a5565b61004433610055565b6001600160a01b03166080526100d5565b600080546001600160a01b038381166001600160a01b0319831681178455604051919092169283917f8be0079c531659141344cd1fd0a4f28419497f9722a3daafe3b4186f6b6457e09190a35050565b6000602082840312156100b757600080fd5b81516001600160a01b03811681146100ce57600080fd5b9392505050565b608051610b9561010c600039600081816101eb01528181610225015281816103180152818161040101526104dc0152610b956000f3fe6080604052600436106100a95760003560e01c80639ad2cd1411610063578063f2fde38b1161004b578063f2fde38b14610199578063f3aa52a1146101b9578063fc0c546a146101d957005b80639ad2cd1414610156578063a4beda631461016c57005b8063715018a611610091578063715018a6146100ef5780638da5cb5b1461010457806392a4feb71461013657005b80631720f5d2146100b2578063359cf2b7146100da57005b366100b057005b005b3480156100be57600080fd5b506100c761020d565b6040519081526020015b60405180910390f35b3480156100e657600080fd5b506100b061029d565b3480156100fb57600080fd5b506100b0610469565b34801561011057600080fd5b506000546001600160a01b03165b6040516001600160a01b0390911681526020016100d1565b34801561014257600080fd5b506100b0610151366004610a28565b6104cf565b34801561016257600080fd5b506100c760015481565b34801561017857600080fd5b506100c7610187366004610a41565b60026020526000908152604090205481565b3480156101a557600080fd5b506100b06101b4366004610a41565b610507565b3480156101c557600080fd5b506100b06101d4366004610a28565b6105e6565b3480156101e557600080fd5b5061011e7f000000000000000000000000000000000000000000000000000000000000000081565b6040516370a0823160e01b81523060048201526000907f00000000000000000000000000000000000000000000000000000000000000006001600160a01b0316906370a0823190602401602060405180830381865afa158015610274573d6000803e3d6000fd5b505050506040513d601f19601f820116820180604052508101906102989190610a6a565b905090565b3360009081526002602052604090205442116103005760405162461bcd60e51b815260206004820152601660248201527f506c656173652074727920616761696e206c617465720000000000000000000060448201526064015b60405180910390fd5b6001546040516370a0823160e01b81523060048201527f00000000000000000000000000000000000000000000000000000000000000006001600160a01b0316906370a0823190602401602060405180830381865afa158015610367573d6000803e3d6000fd5b505050506040513d601f19601f8201168201806040525081019061038b9190610a6a565b116103d85760405162461bcd60e51b815260206004820152601f60248201527f4e6f7420656e6f7567682066756e647320696e20746865206661756365742e0060448201526064016102f7565b6103e54262015180610a83565b3360008181526002602052604090209190915560015461042f917f00000000000000000000000000000000000000000000000000000000000000006001600160a01b031691610645565b60015460405190815233907f47cee97cb7acd717b3c0aa1435d004cd5b3c8c57d70dbceb4e4458bbd60e39d49060200160405180910390a2565b6000546001600160a01b031633146104c35760405162461bcd60e51b815260206004820181905260248201527f4f776e61626c653a2063616c6c6572206973206e6f7420746865206f776e657260448201526064016102f7565b6104cd60006106f3565b565b6105046001600160a01b037f00000000000000000000000000000000000000000000000000000000000000001633308461075b565b50565b6000546001600160a01b031633146105615760405162461bcd60e51b815260206004820181905260248201527f4f776e61626c653a2063616c6c6572206973206e6f7420746865206f776e657260448201526064016102f7565b6001600160a01b0381166105dd5760405162461bcd60e51b815260206004820152602660248201527f4f776e61626c653a206e6577206f776e657220697320746865207a65726f206160448201527f646472657373000000000000000000000000000000000000000000000000000060648201526084016102f7565b610504816106f3565b6000546001600160a01b031633146106405760405162461bcd60e51b815260206004820181905260248201527f4f776e61626c653a2063616c6c6572206973206e6f7420746865206f776e657260448201526064016102f7565b600155565b6040516001600160a01b0383166024820152604481018290526106ee9084907fa9059cbb00000000000000000000000000000000000000000000000000000000906064015b60408051601f198184030181529190526020810180517bffffffffffffffffffffffffffffffffffffffffffffffffffffffff167fffffffff00000000000000000000000000000000000000000000000000000000909316929092179091526107b2565b505050565b600080546001600160a01b038381167fffffffffffffffffffffffff0000000000000000000000000000000000000000831681178455604051919092169283917f8be0079c531659141344cd1fd0a4f28419497f9722a3daafe3b4186f6b6457e09190a35050565b6040516001600160a01b03808516602483015283166044820152606481018290526107ac9085907f23b872dd000000000000000000000000000000000000000000000000000000009060840161068a565b50505050565b6000610807826040518060400160405280602081526020017f5361666545524332303a206c6f772d6c6576656c2063616c6c206661696c6564815250856001600160a01b03166108979092919063ffffffff16565b8051909150156106ee57808060200190518101906108259190610ac2565b6106ee5760405162461bcd60e51b815260206004820152602a60248201527f5361666545524332303a204552433230206f7065726174696f6e20646964206e60448201527f6f7420737563636565640000000000000000000000000000000000000000000060648201526084016102f7565b60606108a684846000856108b0565b90505b9392505050565b6060824710156109285760405162461bcd60e51b815260206004820152602660248201527f416464726573733a20696e73756666696369656e742062616c616e636520666f60448201527f722063616c6c000000000000000000000000000000000000000000000000000060648201526084016102f7565b843b6109765760405162461bcd60e51b815260206004820152601d60248201527f416464726573733a2063616c6c20746f206e6f6e2d636f6e747261637400000060448201526064016102f7565b600080866001600160a01b031685876040516109929190610b10565b60006040518083038185875af1925050503d80600081146109cf576040519150601f19603f3d011682016040523d82523d6000602084013e6109d4565b606091505b50915091506109e48282866109ef565b979650505050505050565b606083156109fe5750816108a9565b825115610a0e5782518084602001fd5b8160405162461bcd60e51b81526004016102f79190610b2c565b600060208284031215610a3a57600080fd5b5035919050565b600060208284031215610a5357600080fd5b81356001600160a01b03811681146108a957600080fd5b600060208284031215610a7c57600080fd5b5051919050565b60008219821115610abd577f4e487b7100000000000000000000000000000000000000000000000000000000600052601160045260246000fd5b500190565b600060208284031215610ad457600080fd5b815180151581146108a957600080fd5b60005b83811015610aff578181015183820152602001610ae7565b838111156107ac5750506000910152565b60008251610b22818460208701610ae4565b9190910192915050565b6020815260008251806020840152610b4b816040850160208701610ae4565b601f01601f1916919091016040019291505056fea2646970667358221220ed84eb2db948717ce5051c6863f4ddf13ac46756a802c94b71f3cde08b3d87d764736f6c634300080a0033",
  "linkReferences": {},
  "deployedLinkReferences": {}
}