{
  "_format": "hh-sol-artifact-1",
  "contractName": "StakingPlatform",
  "sourceName": "contracts/staking/StakingPlatform.sol",
  "abi": [
    {
      "inputs": [
        {
          "internalType": "address",
          "name": "_token",
          "type": "address"
        },
        {
          "internalType": "uint8",
          "name": "_fixedAPY",
          "type": "uint8"
        },
        {
          "internalType": "uint256",
          "name": "_durationInDays",
          "type": "uint256"
        },
        {
          "internalType": "uint256",
          "name": "_lockDurationInDays",
          "type": "uint256"
        },
        {
          "internalType": "uint256",
          "name": "_maxAmountStaked",
          "type": "uint256"
        }
      ],
      "stateMutability": "nonpayable",
      "type": "constructor"
    },
    {
      "anonymous": false,
      "inputs": [
        {
          "indexed": true,
          "internalType": "address",
          "name": "stakeHolder",
          "type": "address"
        },
        {
          "indexed": false,
          "internalType": "uint256",
          "name": "amount",
          "type": "uint256"
        }
      ],
      "name": "Claim",
      "type": "event"
    },
    {
      "anonymous": false,
      "inputs": [
        {
          "indexed": true,
          "internalType": "address",
          "name": "owner",
          "type": "address"
        },
        {
          "indexed": false,
          "internalType": "uint256",
          "name": "amount",
          "type": "uint256"
        }
      ],
      "name": "Deposit",
      "type": "event"
    },
    {
      "anonymous": false,
      "inputs": [
        {
          "indexed": true,
          "internalType": "address",
          "name": "previousOwner",
          "type": "address"
        },
        {
          "indexed": true,
          "internalType": "address",
          "name": "newOwner",
          "type": "address"
        }
      ],
      "name": "OwnershipTransferred",
      "type": "event"
    },
    {
      "anonymous": false,
      "inputs": [
        {
          "indexed": false,
          "internalType": "uint256",
          "name": "startPeriod",
          "type": "uint256"
        },
        {
          "indexed": false,
          "internalType": "uint256",
          "name": "lockupPeriod",
          "type": "uint256"
        },
        {
          "indexed": false,
          "internalType": "uint256",
          "name": "endingPeriod",
          "type": "uint256"
        }
      ],
      "name": "StartStaking",
      "type": "event"
    },
    {
      "anonymous": false,
      "inputs": [
        {
          "indexed": true,
          "internalType": "address",
          "name": "owner",
          "type": "address"
        },
        {
          "indexed": false,
          "internalType": "uint256",
          "name": "amount",
          "type": "uint256"
        }
      ],
      "name": "Withdraw",
      "type": "event"
    },
    {
      "inputs": [
        {
          "internalType": "address",
          "name": "stakeHolder",
          "type": "address"
        }
      ],
      "name": "amountStaked",
      "outputs": [
        {
          "internalType": "uint256",
          "name": "",
          "type": "uint256"
        }
      ],
      "stateMutability": "view",
      "type": "function"
    },
    {
      "inputs": [
        {
          "internalType": "address",
          "name": "stakeHolder",
          "type": "address"
        }
      ],
      "name": "calculateRewards",
      "outputs": [
        {
          "internalType": "uint256",
          "name": "",
          "type": "uint256"
        }
      ],
      "stateMutability": "view",
      "type": "function"
    },
    {
      "inputs": [],
      "name": "claimRewards",
      "outputs": [],
      "stateMutability": "nonpayable",
      "type": "function"
    },
    {
      "inputs": [
        {
          "internalType": "uint256",
          "name": "amount",
          "type": "uint256"
        }
      ],
      "name": "deposit",
      "outputs": [],
      "stateMutability": "nonpayable",
      "type": "function"
    },
    {
      "inputs": [],
      "name": "endPeriod",
      "outputs": [
        {
          "internalType": "uint256",
          "name": "",
          "type": "uint256"
        }
      ],
      "stateMutability": "view",
      "type": "function"
    },
    {
      "inputs": [],
      "name": "fixedAPY",
      "outputs": [
        {
          "internalType": "uint8",
          "name": "",
          "type": "uint8"
        }
      ],
      "stateMutability": "view",
      "type": "function"
    },
    {
      "inputs": [],
      "name": "lockupDuration",
      "outputs": [
        {
          "internalType": "uint256",
          "name": "",
          "type": "uint256"
        }
      ],
      "stateMutability": "view",
      "type": "function"
    },
    {
      "inputs": [],
      "name": "lockupPeriod",
      "outputs": [
        {
          "internalType": "uint256",
          "name": "",
          "type": "uint256"
        }
      ],
      "stateMutability": "view",
      "type": "function"
    },
    {
      "inputs": [],
      "name": "owner",
      "outputs": [
        {
          "internalType": "address",
          "name": "",
          "type": "address"
        }
      ],
      "stateMutability": "view",
      "type": "function"
    },
    {
      "inputs": [
        {
          "internalType": "address",
          "name": "stakeHolder",
          "type": "address"
        }
      ],
      "name": "percentageTimeRemaining",
      "outputs": [
        {
          "internalType": "uint256",
          "name": "",
          "type": "uint256"
        }
      ],
      "stateMutability": "view",
      "type": "function"
    },
    {
      "inputs": [],
      "name": "renounceOwnership",
      "outputs": [],
      "stateMutability": "nonpayable",
      "type": "function"
    },
    {
      "inputs": [
        {
          "internalType": "address",
          "name": "stakeHolder",
          "type": "address"
        }
      ],
      "name": "rewardOf",
      "outputs": [
        {
          "internalType": "uint256",
          "name": "",
          "type": "uint256"
        }
      ],
      "stateMutability": "view",
      "type": "function"
    },
    {
      "inputs": [
        {
          "internalType": "address",
          "name": "",
          "type": "address"
        }
      ],
      "name": "staked",
      "outputs": [
        {
          "internalType": "uint256",
          "name": "",
          "type": "uint256"
        }
      ],
      "stateMutability": "view",
      "type": "function"
    },
    {
      "inputs": [],
      "name": "stakingDuration",
      "outputs": [
        {
          "internalType": "uint256",
          "name": "",
          "type": "uint256"
        }
      ],
      "stateMutability": "view",
      "type": "function"
    },
    {
      "inputs": [],
      "name": "stakingMax",
      "outputs": [
        {
          "internalType": "uint256",
          "name": "",
          "type": "uint256"
        }
      ],
      "stateMutability": "view",
      "type": "function"
    },
    {
      "inputs": [],
      "name": "startPeriod",
      "outputs": [
        {
          "internalType": "uint256",
          "name": "",
          "type": "uint256"
        }
      ],
      "stateMutability": "view",
      "type": "function"
    },
    {
      "inputs": [],
      "name": "startStaking",
      "outputs": [],
      "stateMutability": "nonpayable",
      "type": "function"
    },
    {
      "inputs": [],
      "name": "token",
      "outputs": [
        {
          "internalType": "contract IERC20",
          "name": "",
          "type": "address"
        }
      ],
      "stateMutability": "view",
      "type": "function"
    },
    {
      "inputs": [],
      "name": "totalDeposited",
      "outputs": [
        {
          "internalType": "uint256",
          "name": "",
          "type": "uint256"
        }
      ],
      "stateMutability": "view",
      "type": "function"
    },
    {
      "inputs": [
        {
          "internalType": "address",
          "name": "newOwner",
          "type": "address"
        }
      ],
      "name": "transferOwnership",
      "outputs": [],
      "stateMutability": "nonpayable",
      "type": "function"
    },
    {
      "inputs": [
        {
          "internalType": "uint256",
          "name": "amount",
          "type": "uint256"
        }
      ],
      "name": "withdraw",
      "outputs": [],
      "stateMutability": "nonpayable",
      "type": "function"
    },
    {
      "inputs": [],
      "name": "withdrawAll",
      "outputs": [],
      "stateMutability": "nonpayable",
      "type": "function"
    },
    {
      "inputs": [],
      "name": "withdrawResidualBalance",
      "outputs": [],
      "stateMutability": "nonpayable",
      "type": "function"
    }
  ],
  "bytecode": "0x610120604052620f42406005553480156200001957600080fd5b50604051620017cd380380620017cd8339810160408190526200003c91620000db565b62000047336200008b565b62000056836201518062000143565b60c05262000068826201518062000143565b60e0526001600160a01b03909416608052505060ff1660a0526101005262000171565b600080546001600160a01b038381166001600160a01b0319831681178455604051919092169283917f8be0079c531659141344cd1fd0a4f28419497f9722a3daafe3b4186f6b6457e09190a35050565b600080600080600060a08688031215620000f457600080fd5b85516001600160a01b03811681146200010c57600080fd5b602087015190955060ff811681146200012457600080fd5b6040870151606088015160809098015196999198509695945092505050565b60008160001904831182151516156200016c57634e487b7160e01b600052601160045260246000fd5b500290565b60805160a05160c05160e051610100516115c36200020a6000396000818161033b0152610ae1015260008181610197015281816108fd01526109600152600081816102820152818161041e01528181610446015281816104c0015281816104f0015261092a01526000818161021d015261079f01526000818161037d015281816106ae01528181610c1e0152610e4d01526115c36000f3fe608060405234801561001057600080fd5b506004361061018d5760003560e01c80638005a7de116100e3578063ef40a6701161008c578063fb468ac311610066578063fb468ac314610370578063fc0c546a14610378578063ff50abdc1461039f57600080fd5b8063ef40a6701461030d578063f0316bc814610336578063f2fde38b1461035d57600080fd5b806398807d84116100bd57806398807d84146102d1578063b6b55f25146102f1578063ee947a7c1461030457600080fd5b80638005a7de1461027d578063853828b6146102a45780638da5cb5b146102ac57600080fd5b8063372500ab1161014557806364ab86751161011f57806364ab86751461025a578063715018a61461026d57806371b0cbfa1461027557600080fd5b8063372500ab1461021057806348c9eaaf146102185780635faa65ff1461025157600080fd5b806327b85cae1161017657806327b85cae146101df5780632e1a7d4d146101f257806330bfb9bb1461020757600080fd5b80631ada70a8146101925780631d62ebd9146101cc575b600080fd5b6101b97f000000000000000000000000000000000000000000000000000000000000000081565b6040519081526020015b60405180910390f35b6101b96101da36600461140f565b6103a7565b6101b96101ed36600461140f565b6103b8565b610205610200366004611438565b610538565b005b6101b960015481565b61020561070e565b61023f7f000000000000000000000000000000000000000000000000000000000000000081565b60405160ff90911681526020016101c3565b6101b960035481565b6101b961026836600461140f565b610718565b6102056107e3565b610205610847565b6101b97f000000000000000000000000000000000000000000000000000000000000000081565b6102056109b9565b6000546001600160a01b03165b6040516001600160a01b0390911681526020016101c3565b6101b96102df36600461140f565b60066020526000908152604090205481565b6102056102ff366004611438565b610a83565b6101b960025481565b6101b961031b36600461140f565b6001600160a01b031660009081526006602052604090205490565b6101b97f000000000000000000000000000000000000000000000000000000000000000081565b61020561036b36600461140f565b610c80565b610205610d62565b6102b97f000000000000000000000000000000000000000000000000000000000000000081565b6004546101b9565b60006103b282610718565b92915050565b6001600160a01b038116600090815260086020526040812054600154600354911090829042101561048f5781610406576001600160a01b03841660009081526008602052604090205461040a565b6001545b905060006104188242611467565b610442907f0000000000000000000000000000000000000000000000000000000000000000611467565b90507f000000000000000000000000000000000000000000000000000000000000000061046f8282611467565b60055461047c919061147e565b610486919061149d565b95945050505050565b816104e9576001600160a01b0384166000908152600860205260409020546003546104ba9190611467565b6104e4907f0000000000000000000000000000000000000000000000000000000000000000611467565b6104ec565b60005b90507f00000000000000000000000000000000000000000000000000000000000000006105198282611467565b600554610526919061147e565b610530919061149d565b949350505050565b60025442101561058f5760405162461bcd60e51b815260206004820152601d60248201527f4e6f20776974686472617720756e74696c206c6f636b757020656e647300000060448201526064015b60405180910390fd5b600081116105df5760405162461bcd60e51b815260206004820152601d60248201527f416d6f756e74206d7573742062652067726561746572207468616e20300000006044820152606401610586565b3360009081526006602052604090205481111561063e5760405162461bcd60e51b815260206004820152601f60248201527f416d6f756e7420686967686572207468616e207374616b6564416d6f756e74006044820152606401610586565b610646610f3d565b336000908152600760205260409020541561066357610663610f7c565b80600460008282546106759190611467565b90915550503360009081526006602052604081208054839290610699908490611467565b909155506106d59050335b6001600160a01b037f000000000000000000000000000000000000000000000000000000000000000016908361102c565b60405181815233907f884edad9ce6fa2440d8a54cc123490eb96d2768479d49ff9c7366125a9424364906020015b60405180910390a250565b610716610f7c565b565b60006001546000148061074157506001600160a01b038216600090815260066020526040902054155b1561074e57506000919050565b6001600160a01b03821660009081526007602052604090205460055461077590606461147e565b61077e846103b8565b6001600160a01b0385166000908152600660205260409020546107c59060ff7f0000000000000000000000000000000000000000000000000000000000000000169061147e565b6107cf919061147e565b6107d9919061149d565b6103b291906114bf565b6000546001600160a01b0316331461083d5760405162461bcd60e51b815260206004820181905260248201527f4f776e61626c653a2063616c6c6572206973206e6f7420746865206f776e65726044820152606401610586565b61071660006110da565b6000546001600160a01b031633146108a15760405162461bcd60e51b815260206004820181905260248201527f4f776e61626c653a2063616c6c6572206973206e6f7420746865206f776e65726044820152606401610586565b600154156108f15760405162461bcd60e51b815260206004820152601b60248201527f5374616b696e672068617320616c7265616479207374617274656400000000006044820152606401610586565b426001819055610922907f0000000000000000000000000000000000000000000000000000000000000000906114bf565b60025561094f7f0000000000000000000000000000000000000000000000000000000000000000426114bf565b6003819055600154604080519182527f000000000000000000000000000000000000000000000000000000000000000060208301528101919091527f0cdba3fb0a2020e0c9dc500b2679007a9c91cfcf35acab0eb46766c1200b42cd9060600160405180910390a1565b600254421015610a0b5760405162461bcd60e51b815260206004820152601d60248201527f4e6f20776974686472617720756e74696c206c6f636b757020656e64730000006044820152606401610586565b610a13610f3d565b3360009081526007602052604090205415610a3057610a30610f7c565b33600090815260086020908152604080832083905560069091528120546004805491929091610a60908490611467565b90915550503360008181526006602052604081208054919055906106d5906106a4565b6003541580610a93575042600354115b610adf5760405162461bcd60e51b815260206004820152601460248201527f5374616b696e6720706572696f6420656e6465640000000000000000000000006044820152606401610586565b7f000000000000000000000000000000000000000000000000000000000000000081600454610b0e91906114bf565b1115610b5c5760405162461bcd60e51b815260206004820152601e60248201527f416d6f756e74207374616b65642065786365656473204d61785374616b6500006044820152606401610586565b60008111610bac5760405162461bcd60e51b815260206004820152601d60248201527f416d6f756e74206d7573742062652067726561746572207468616e20300000006044820152606401610586565b33600090815260086020526040902054610bd3573360009081526008602052604090204290555b610bdb610f3d565b3360009081526006602052604081208054839290610bfa9084906114bf565b925050819055508060046000828254610c1391906114bf565b90915550610c4e90507f00000000000000000000000000000000000000000000000000000000000000006001600160a01b0316333084611142565b60405181815233907fe1fffcc4923d04b559f4d29a8bfc6cda04eb5b0d3c460751c2402c5c5cc9109c90602001610703565b6000546001600160a01b03163314610cda5760405162461bcd60e51b815260206004820181905260248201527f4f776e61626c653a2063616c6c6572206973206e6f7420746865206f776e65726044820152606401610586565b6001600160a01b038116610d565760405162461bcd60e51b815260206004820152602660248201527f4f776e61626c653a206e6577206f776e657220697320746865207a65726f206160448201527f64647265737300000000000000000000000000000000000000000000000000006064820152608401610586565b610d5f816110da565b50565b6000546001600160a01b03163314610dbc5760405162461bcd60e51b815260206004820181905260248201527f4f776e61626c653a2063616c6c6572206973206e6f7420746865206f776e65726044820152606401610586565b600354610dcd906301e133806114bf565b421015610e1c5760405162461bcd60e51b815260206004820152601e60248201527f576974686472617720317965617220616674657220656e64506572696f6400006044820152606401610586565b6040517f70a082310000000000000000000000000000000000000000000000000000000081523060048201526000907f00000000000000000000000000000000000000000000000000000000000000006001600160a01b0316906370a0823190602401602060405180830381865afa158015610e9c573d6000803e3d6000fd5b505050506040513d601f19601f82011682018060405250810190610ec091906114d7565b9050600060045482610ed29190611467565b905060008111610f245760405162461bcd60e51b815260206004820152601f60248201527f4e6f20726573696475616c2042616c616e636520746f207769746864726177006044820152606401610586565b610f396106a46000546001600160a01b031690565b5050565b610f4633610718565b33600090815260076020526040902055600354421015610f665742610f6a565b6003545b33600090815260086020526040902055565b610f84610f3d565b3360009081526007602052604090205480610fe15760405162461bcd60e51b815260206004820152601060248201527f4e6f7468696e6720746f20636c61696d000000000000000000000000000000006044820152606401610586565b33600081815260076020526040812055610ffa906106a4565b60405181815233907f47cee97cb7acd717b3c0aa1435d004cd5b3c8c57d70dbceb4e4458bbd60e39d490602001610703565b6040516001600160a01b0383166024820152604481018290526110d59084907fa9059cbb00000000000000000000000000000000000000000000000000000000906064015b60408051601f198184030181529190526020810180517bffffffffffffffffffffffffffffffffffffffffffffffffffffffff167fffffffff0000000000000000000000000000000000000000000000000000000090931692909217909152611199565b505050565b600080546001600160a01b038381167fffffffffffffffffffffffff0000000000000000000000000000000000000000831681178455604051919092169283917f8be0079c531659141344cd1fd0a4f28419497f9722a3daafe3b4186f6b6457e09190a35050565b6040516001600160a01b03808516602483015283166044820152606481018290526111939085907f23b872dd0000000000000000000000000000000000000000000000000000000090608401611071565b50505050565b60006111ee826040518060400160405280602081526020017f5361666545524332303a206c6f772d6c6576656c2063616c6c206661696c6564815250856001600160a01b031661127e9092919063ffffffff16565b8051909150156110d5578080602001905181019061120c91906114f0565b6110d55760405162461bcd60e51b815260206004820152602a60248201527f5361666545524332303a204552433230206f7065726174696f6e20646964206e60448201527f6f742073756363656564000000000000000000000000000000000000000000006064820152608401610586565b606061128d8484600085611297565b90505b9392505050565b60608247101561130f5760405162461bcd60e51b815260206004820152602660248201527f416464726573733a20696e73756666696369656e742062616c616e636520666f60448201527f722063616c6c00000000000000000000000000000000000000000000000000006064820152608401610586565b843b61135d5760405162461bcd60e51b815260206004820152601d60248201527f416464726573733a2063616c6c20746f206e6f6e2d636f6e74726163740000006044820152606401610586565b600080866001600160a01b03168587604051611379919061153e565b60006040518083038185875af1925050503d80600081146113b6576040519150601f19603f3d011682016040523d82523d6000602084013e6113bb565b606091505b50915091506113cb8282866113d6565b979650505050505050565b606083156113e5575081611290565b8251156113f55782518084602001fd5b8160405162461bcd60e51b8152600401610586919061155a565b60006020828403121561142157600080fd5b81356001600160a01b038116811461129057600080fd5b60006020828403121561144a57600080fd5b5035919050565b634e487b7160e01b600052601160045260246000fd5b60008282101561147957611479611451565b500390565b600081600019048311821515161561149857611498611451565b500290565b6000826114ba57634e487b7160e01b600052601260045260246000fd5b500490565b600082198211156114d2576114d2611451565b500190565b6000602082840312156114e957600080fd5b5051919050565b60006020828403121561150257600080fd5b8151801515811461129057600080fd5b60005b8381101561152d578181015183820152602001611515565b838111156111935750506000910152565b60008251611550818460208701611512565b9190910192915050565b6020815260008251806020840152611579816040850160208701611512565b601f01601f1916919091016040019291505056fea26469706673582212204698a66a854a98db2f6614b3f6220c173b69e429c52228677aab223dfaf6063264736f6c634300080a0033",
  "linkReferences": {},
  "deployedLinkReferences": {}
}